{
  "_format": "hh-sol-artifact-1",
  "contractName": "PredictionArena",
  "sourceName": "contracts/PredictionArena.sol",
  "abi": [
    {
      "inputs": [
        {
          "internalType": "uint256",
          "name": "_deadline",
          "type": "uint256"
        }
      ],
      "stateMutability": "nonpayable",
      "type": "constructor"
    },
    {
      "inputs": [],
      "name": "AlreadyResolved",
      "type": "error"
    },
    {
      "inputs": [],
      "name": "AlreadySubmitted",
      "type": "error"
    },
    {
      "inputs": [],
      "name": "DeadlineNotReached",
      "type": "error"
    },
    {
      "inputs": [],
      "name": "DeadlinePassed",
      "type": "error"
    },
    {
      "inputs": [],
      "name": "InvalidDeadline",
      "type": "error"
    },
    {
      "inputs": [],
      "name": "InvalidOwner",
      "type": "error"
    },
    {
      "inputs": [],
      "name": "NoPrediction",
      "type": "error"
    },
    {
      "inputs": [],
      "name": "NotOwner",
      "type": "error"
    },
    {
      "inputs": [],
      "name": "NotResolved",
      "type": "error"
    },
    {
      "inputs": [],
      "name": "OnlyAIBot",
      "type": "error"
    },
    {
      "anonymous": false,
      "inputs": [
        {
          "indexed": false,
          "internalType": "address",
          "name": "newAIBot",
          "type": "address"
        }
      ],
      "name": "AIBotUpdated",
      "type": "event"
    },
    {
      "anonymous": false,
      "inputs": [
        {
          "indexed": false,
          "internalType": "uint256",
          "name": "newDeadline",
          "type": "uint256"
        }
      ],
      "name": "DeadlineUpdated",
      "type": "event"
    },
    {
      "anonymous": false,
      "inputs": [
        {
          "indexed": false,
          "internalType": "address",
          "name": "newOwner",
          "type": "address"
        }
      ],
      "name": "OwnerUpdated",
      "type": "event"
    },
    {
      "anonymous": false,
      "inputs": [
        {
          "indexed": true,
          "internalType": "address",
          "name": "user",
          "type": "address"
        },
        {
          "indexed": false,
          "internalType": "int256",
          "name": "value",
          "type": "int256"
        },
        {
          "indexed": false,
          "internalType": "uint256",
          "name": "timestamp",
          "type": "uint256"
        }
      ],
      "name": "PredictionStored",
      "type": "event"
    },
    {
      "anonymous": false,
      "inputs": [
        {
          "indexed": false,
          "internalType": "int256",
          "name": "actualValue",
          "type": "int256"
        },
        {
          "indexed": false,
          "internalType": "uint256",
          "name": "timestamp",
          "type": "uint256"
        }
      ],
      "name": "Resolved",
      "type": "event"
    },
    {
      "inputs": [
        {
          "internalType": "address",
          "name": "user",
          "type": "address"
        }
      ],
      "name": "absError",
      "outputs": [
        {
          "internalType": "uint256",
          "name": "",
          "type": "uint256"
        }
      ],
      "stateMutability": "view",
      "type": "function"
    },
    {
      "inputs": [],
      "name": "actualValue",
      "outputs": [
        {
          "internalType": "int256",
          "name": "",
          "type": "int256"
        }
      ],
      "stateMutability": "view",
      "type": "function"
    },
    {
      "inputs": [],
      "name": "aiBot",
      "outputs": [
        {
          "internalType": "address",
          "name": "",
          "type": "address"
        }
      ],
      "stateMutability": "view",
      "type": "function"
    },
    {
      "inputs": [],
      "name": "deadline",
      "outputs": [
        {
          "internalType": "uint256",
          "name": "",
          "type": "uint256"
        }
      ],
      "stateMutability": "view",
      "type": "function"
    },
    {
      "inputs": [],
      "name": "getInfo",
      "outputs": [
        {
          "internalType": "address",
          "name": "ownerAddress",
          "type": "address"
        },
        {
          "internalType": "address",
          "name": "aiBotAddress",
          "type": "address"
        },
        {
          "internalType": "uint256",
          "name": "deadlineTimestamp",
          "type": "uint256"
        },
        {
          "internalType": "bool",
          "name": "isResolved",
          "type": "bool"
        },
        {
          "internalType": "int256",
          "name": "actualValueResult",
          "type": "int256"
        }
      ],
      "stateMutability": "view",
      "type": "function"
    },
    {
      "inputs": [],
      "name": "owner",
      "outputs": [
        {
          "internalType": "address",
          "name": "",
          "type": "address"
        }
      ],
      "stateMutability": "view",
      "type": "function"
    },
    {
      "inputs": [
        {
          "internalType": "address",
          "name": "",
          "type": "address"
        }
      ],
      "name": "predictions",
      "outputs": [
        {
          "internalType": "int256",
          "name": "value",
          "type": "int256"
        },
        {
          "internalType": "uint256",
          "name": "timestamp",
          "type": "uint256"
        },
        {
          "internalType": "bool",
          "name": "exists",
          "type": "bool"
        }
      ],
      "stateMutability": "view",
      "type": "function"
    },
    {
      "inputs": [
        {
          "internalType": "int256",
          "name": "_actualValue",
          "type": "int256"
        }
      ],
      "name": "resolve",
      "outputs": [],
      "stateMutability": "nonpayable",
      "type": "function"
    },
    {
      "inputs": [],
      "name": "resolved",
      "outputs": [
        {
          "internalType": "bool",
          "name": "",
          "type": "bool"
        }
      ],
      "stateMutability": "view",
      "type": "function"
    },
    {
      "inputs": [
        {
          "internalType": "address",
          "name": "newAIBot",
          "type": "address"
        }
      ],
      "name": "setAIBot",
      "outputs": [],
      "stateMutability": "nonpayable",
      "type": "function"
    },
    {
      "inputs": [
        {
          "internalType": "uint256",
          "name": "newDeadline",
          "type": "uint256"
        }
      ],
      "name": "setDeadline",
      "outputs": [],
      "stateMutability": "nonpayable",
      "type": "function"
    },
    {
      "inputs": [
        {
          "internalType": "address",
          "name": "newOwner",
          "type": "address"
        }
      ],
      "name": "setOwner",
      "outputs": [],
      "stateMutability": "nonpayable",
      "type": "function"
    },
    {
      "inputs": [
        {
          "internalType": "int256",
          "name": "value",
          "type": "int256"
        }
      ],
      "name": "submitAIBotPrediction",
      "outputs": [],
      "stateMutability": "nonpayable",
      "type": "function"
    },
    {
      "inputs": [
        {
          "internalType": "int256",
          "name": "value",
          "type": "int256"
        }
      ],
      "name": "submitPrediction",
      "outputs": [],
      "stateMutability": "nonpayable",
      "type": "function"
    },
    {
      "inputs": [
        {
          "internalType": "address",
          "name": "user",
          "type": "address"
        }
      ],
      "name": "viewStatus",
      "outputs": [
        {
          "internalType": "int256",
          "name": "value",
          "type": "int256"
        },
        {
          "internalType": "uint256",
          "name": "timestamp",
          "type": "uint256"
        },
        {
          "internalType": "bool",
          "name": "isResolved",
          "type": "bool"
        },
        {
          "internalType": "int256",
          "name": "actual",
          "type": "int256"
        }
      ],
      "stateMutability": "view",
      "type": "function"
    }
  ],
  "bytecode": "0x60806040523480156200001157600080fd5b50604051620013f9380380620013f9833981810160405281019062000037919062000122565b42811162000071576040517f769d11e400000000000000000000000000000000000000000000000000000000815260040160405180910390fd5b336000806101000a81548173ffffffffffffffffffffffffffffffffffffffff021916908373ffffffffffffffffffffffffffffffffffffffff160217905550806002819055506000600360006101000a81548160ff02191690831515021790555060006004819055505062000154565b600080fd5b6000819050919050565b620000fc81620000e7565b81146200010857600080fd5b50565b6000815190506200011c81620000f1565b92915050565b6000602082840312156200013b576200013a620000e2565b5b60006200014b848285016200010b565b91505092915050565b61129580620001646000396000f3fe608060405234801561001057600080fd5b50600436106100f55760003560e01c80638d04faef11610097578063b00d4f5311610066578063b00d4f5314610266578063e466409614610282578063e726e403146102a0578063ef2de18f146102bc576100f5565b80638d04faef146101de5780638da5cb5b1461020e5780639e01ad0a1461022c578063a48bc8eb1461024a576100f5565b806329dcb0cf116100d357806329dcb0cf1461014e57806335fa61fa1461016c5780633f6fa6551461019e5780635a9b0b89146101bc576100f5565b806301810b18146100fa57806313af403514610116578063195199f614610132575b600080fd5b610114600480360381019061010f9190610ede565b6102ef565b005b610130600480360381019061012b9190610f69565b610454565b005b61014c60048036038101906101479190610fcc565b6105b9565b005b6101566106b8565b6040516101639190611008565b60405180910390f35b61018660048036038101906101819190610f69565b6106be565b6040516101959392919061104d565b60405180910390f35b6101a66106f5565b6040516101b39190611084565b60405180910390f35b6101c4610708565b6040516101d59594939291906110ae565b60405180910390f35b6101f860048036038101906101f39190610f69565b61077c565b6040516102059190611008565b60405180910390f35b610216610894565b6040516102239190611101565b60405180910390f35b6102346108b8565b6040516102419190611101565b60405180910390f35b610264600480360381019061025f9190610ede565b6108de565b005b610280600480360381019061027b9190610f69565b610b0f565b005b61028a610c0f565b604051610297919061111c565b60405180910390f35b6102ba60048036038101906102b59190610ede565b610c15565b005b6102d660048036038101906102d19190610f69565b610dbf565b6040516102e69493929190611137565b60405180910390f35b60008054906101000a900473ffffffffffffffffffffffffffffffffffffffff1673ffffffffffffffffffffffffffffffffffffffff163373ffffffffffffffffffffffffffffffffffffffff1614610374576040517f30cd747100000000000000000000000000000000000000000000000000000000815260040160405180910390fd5b60025442116103af576040517f66ec4ee600000000000000000000000000000000000000000000000000000000815260040160405180910390fd5b600360009054906101000a900460ff16156103f6576040517f6d5703c200000000000000000000000000000000000000000000000000000000815260040160405180910390fd5b6001600360006101000a81548160ff021916908315150217905550806004819055507f07e6651195ee9cecafc4cf15c1edd252dda6a239e7bec7fb1f66f01380c7b4cf814260405161044992919061117c565b60405180910390a150565b60008054906101000a900473ffffffffffffffffffffffffffffffffffffffff1673ffffffffffffffffffffffffffffffffffffffff163373ffffffffffffffffffffffffffffffffffffffff16146104d9576040517f30cd747100000000000000000000000000000000000000000000000000000000815260040160405180910390fd5b600073ffffffffffffffffffffffffffffffffffffffff168173ffffffffffffffffffffffffffffffffffffffff160361053f576040517f49e27cff00000000000000000000000000000000000000000000000000000000815260040160405180910390fd5b806000806101000a81548173ffffffffffffffffffffffffffffffffffffffff021916908373ffffffffffffffffffffffffffffffffffffffff1602179055507f4ffd725fc4a22075e9ec71c59edf9c38cdeb588a91b24fc5b61388c5be41282b816040516105ae9190611101565b60405180910390a150565b60008054906101000a900473ffffffffffffffffffffffffffffffffffffffff1673ffffffffffffffffffffffffffffffffffffffff163373ffffffffffffffffffffffffffffffffffffffff161461063e576040517f30cd747100000000000000000000000000000000000000000000000000000000815260040160405180910390fd5b428111610677576040517f769d11e400000000000000000000000000000000000000000000000000000000815260040160405180910390fd5b806002819055507fdb00f0341e024be397e058a193a27b85cc3e7f921640be77ddf155c9f8d37c5a816040516106ad9190611008565b60405180910390a150565b60025481565b60056020528060005260406000206000915090508060000154908060010154908060020160009054906101000a900460ff16905083565b600360009054906101000a900460ff1681565b60008060008060008060009054906101000a900473ffffffffffffffffffffffffffffffffffffffff16600160009054906101000a900473ffffffffffffffffffffffffffffffffffffffff16600254600360009054906101000a900460ff16600454945094509450945094509091929394565b6000600360009054906101000a900460ff166107c4576040517f9f4a648900000000000000000000000000000000000000000000000000000000815260040160405180910390fd5b6000600560008473ffffffffffffffffffffffffffffffffffffffff1673ffffffffffffffffffffffffffffffffffffffff16815260200190815260200160002060405180606001604052908160008201548152602001600182015481526020016002820160009054906101000a900460ff1615151515815250509050806040015161087c576040517f3b9964c400000000000000000000000000000000000000000000000000000000815260040160405180910390fd5b61088c8160000151600454610e6f565b915050919050565b60008054906101000a900473ffffffffffffffffffffffffffffffffffffffff1681565b600160009054906101000a900473ffffffffffffffffffffffffffffffffffffffff1681565b600160009054906101000a900473ffffffffffffffffffffffffffffffffffffffff1673ffffffffffffffffffffffffffffffffffffffff163373ffffffffffffffffffffffffffffffffffffffff1614610965576040517f6f7e800700000000000000000000000000000000000000000000000000000000815260040160405180910390fd5b6002544211156109a1576040517f70f65caa00000000000000000000000000000000000000000000000000000000815260040160405180910390fd5b600560003373ffffffffffffffffffffffffffffffffffffffff1673ffffffffffffffffffffffffffffffffffffffff16815260200190815260200160002060020160009054906101000a900460ff1615610a28576040517f9fbfc58900000000000000000000000000000000000000000000000000000000815260040160405180910390fd5b604051806060016040528082815260200142815260200160011515815250600560003373ffffffffffffffffffffffffffffffffffffffff1673ffffffffffffffffffffffffffffffffffffffff168152602001908152602001600020600082015181600001556020820151816001015560408201518160020160006101000a81548160ff0219169083151502179055509050503373ffffffffffffffffffffffffffffffffffffffff167f9b2d30c38f538890e8d503e8de25567bb4cd9c2acfcd4f73657167a641f6d59c8242604051610b0492919061117c565b60405180910390a250565b60008054906101000a900473ffffffffffffffffffffffffffffffffffffffff1673ffffffffffffffffffffffffffffffffffffffff163373ffffffffffffffffffffffffffffffffffffffff1614610b94576040517f30cd747100000000000000000000000000000000000000000000000000000000815260040160405180910390fd5b80600160006101000a81548173ffffffffffffffffffffffffffffffffffffffff021916908373ffffffffffffffffffffffffffffffffffffffff1602179055507fc234344ea7e38df091f6bb6e9d351302f226d31ddd33d95aeea94a54374e73be81604051610c049190611101565b60405180910390a150565b60045481565b600254421115610c51576040517f70f65caa00000000000000000000000000000000000000000000000000000000815260040160405180910390fd5b600560003373ffffffffffffffffffffffffffffffffffffffff1673ffffffffffffffffffffffffffffffffffffffff16815260200190815260200160002060020160009054906101000a900460ff1615610cd8576040517f9fbfc58900000000000000000000000000000000000000000000000000000000815260040160405180910390fd5b604051806060016040528082815260200142815260200160011515815250600560003373ffffffffffffffffffffffffffffffffffffffff1673ffffffffffffffffffffffffffffffffffffffff168152602001908152602001600020600082015181600001556020820151816001015560408201518160020160006101000a81548160ff0219169083151502179055509050503373ffffffffffffffffffffffffffffffffffffffff167f9b2d30c38f538890e8d503e8de25567bb4cd9c2acfcd4f73657167a641f6d59c8242604051610db492919061117c565b60405180910390a250565b6000806000806000600560008773ffffffffffffffffffffffffffffffffffffffff1673ffffffffffffffffffffffffffffffffffffffff16815260200190815260200160002060405180606001604052908160008201548152602001600182015481526020016002820160009054906101000a900460ff16151515158152505090508060000151945080602001519350600360009054906101000a900460ff1692506004549150509193509193565b6000808284610e7e91906111d4565b90506000811215610e985780610e9390611217565b610e9a565b805b91505092915050565b600080fd5b6000819050919050565b610ebb81610ea8565b8114610ec657600080fd5b50565b600081359050610ed881610eb2565b92915050565b600060208284031215610ef457610ef3610ea3565b5b6000610f0284828501610ec9565b91505092915050565b600073ffffffffffffffffffffffffffffffffffffffff82169050919050565b6000610f3682610f0b565b9050919050565b610f4681610f2b565b8114610f5157600080fd5b50565b600081359050610f6381610f3d565b92915050565b600060208284031215610f7f57610f7e610ea3565b5b6000610f8d84828501610f54565b91505092915050565b6000819050919050565b610fa981610f96565b8114610fb457600080fd5b50565b600081359050610fc681610fa0565b92915050565b600060208284031215610fe257610fe1610ea3565b5b6000610ff084828501610fb7565b91505092915050565b61100281610f96565b82525050565b600060208201905061101d6000830184610ff9565b92915050565b61102c81610ea8565b82525050565b60008115159050919050565b61104781611032565b82525050565b60006060820190506110626000830186611023565b61106f6020830185610ff9565b61107c604083018461103e565b949350505050565b6000602082019050611099600083018461103e565b92915050565b6110a881610f2b565b82525050565b600060a0820190506110c3600083018861109f565b6110d0602083018761109f565b6110dd6040830186610ff9565b6110ea606083018561103e565b6110f76080830184611023565b9695505050505050565b6000602082019050611116600083018461109f565b92915050565b60006020820190506111316000830184611023565b92915050565b600060808201905061114c6000830187611023565b6111596020830186610ff9565b611166604083018561103e565b6111736060830184611023565b95945050505050565b60006040820190506111916000830185611023565b61119e6020830184610ff9565b9392505050565b7f4e487b7100000000000000000000000000000000000000000000000000000000600052601160045260246000fd5b60006111df82610ea8565b91506111ea83610ea8565b9250828203905081811260008412168282136000851215161715611211576112106111a5565b5b92915050565b600061122282610ea8565b91507f80000000000000000000000000000000000000000000000000000000000000008203611254576112536111a5565b5b81600003905091905056fea2646970667358221220e51dd84cd3dd255338c9ac4a72363c3043849e8e9bb6ce12e0c0de6951998b2164736f6c63430008140033",
  "linkReferences": {},
  "deployedLinkReferences": {}
}